:020000040800F2
:100000008072012025030008F5420008D93D000850
:10001000F1420008290E0008515C000800000000B1
:100020000000000000000000000000006502000861
:10003000570F000800000000C1020008B954000872
:100040003F0300083F0300083F0300083F03000888
:100050003F0300083F0300083F0300083F03000878
:100060003F0300083F0300083F0300083F03000868
:100070003F0300083F0300083F0300083F03000858
:100080003F0300083F0300083F0300083F03000848
:100090003F0300083F0300083F0300083F03000838
:1000A00095550008A55500083F0300083F030008C8
:1000B0003F0300083F0300083F0300083F03000818
:1000C0003F0300083F0300083F0300083F03000808
:1000D0003F030008315C00083F0300083F030008AD
:1000E0003F0300083F0300083F0300083F030008E8
:1000F0003F0300083F0300083F0300083F030008D8
:100100003F030008C1430008B55500083F0300083D
:100110003F0300083F0300083F0300083F030008B7
:100120003F0300083F0300083F0300082D0E0008AE
:100130003F0300083F0300083F0300083F03000897
:100140003F0300083F0300083F0300083F03000887
:100150003F0300083D0E00083F030008415C000813
:100160003F0300083F0300083F0300083F03000867
:100170003F0300083F0300083F03000800000000A1
:100180003F0300083F03000800F002F800F05BF8AE
:100190000AA090E8000C82448344AAF10107DA45E2
:1001A00001D100F050F8AFF2090EBAE80F0013F0D9
:1001B000010F18BFFB1A43F001031847FCC70000EA
:1001C0001CC800000A4410F8014B14F00F0508BFCA
:1001D00010F8015B240908BF10F8014B6D1E05D013
:1001E00010F8013B6D1E01F8013BF9D1641E03D0EC
:1001F000641E01F8015BFBD19142E4D3704700001B
:100200000023002400250026103A28BF78C1FBD81F
:10021000520728BF30C148BF0B607047642900F007
:10022000DF81782900F01882732900F0B48400205F
:1002300070471FB50BF0ACFD9DE8030000F0ECFB30
:100240001FBD10B510BD00F0E7FC1146FFF7F1FF30
:1002500008F0DCF800F005FD03B4FFF7F2FF03BC83
:1002600005F0DEFD2C4B19680868B0E8F04F80F30C
:100270000988BFF36F8F4FF0000080F3118870473B
:100280000000000008480068006880F308884FF00C
:10029000000080F3148862B661B6BFF34F8FBFF3DE
:1002A0006F8F00DF00BF00BF08ED00E0DFF80C003B
:1002B000016841F470010160704700BF88ED00E003
:1002C000EFF30980BFF36F8F134B1A681EF0100F06
:1002D00008BF20ED108A20E9F04F106009B44FF0FC
:1002E000500080F31188BFF34F8FBFF36F8F0AF078
:1002F00049FB4FF0000080F3118809BC19680868B9
:10030000B0E8F04F1EF0100F08BFB0EC108A80F379
:100310000988BFF36F8F7047D0000020EFF305808E
:10032000704700000948804709480047FEE7FEE79C
:10033000FEE7FEE7FEE7FEE7FEE7FEE7FEE7FEE795
:1003400004480549054A064B7047000081550008DE
:100350008901000880520120807201208062012002
:100360008062012070B5064600F03AFB056806F190
:100370000B0020F00704B4429CBF002070BD2B4648
:100380006A68BAB11068A04210D304F1080188422B
:100390003CBF5068586007D351681019416011681C
:1003A000091B016058601460101D70BD134652682F
:1003B000002AE7D12146284600F01AFB0028DED1AA
:1003C00070BD70B50446051F00F00AFB0068002CE4
:1003D00014BF446870BD002C18BFAC423CBF20461F
:1003E0006468F8D301680A18AA4218BF456003D1AF
:1003F0002A6805461144016028684119A1421CBFC2
:100400006C6070BD6168696021680844286070BDD7
:1004100053EA020C00F069802DE9F04B4FF0000622
:10042000002B1FBFB3FA83F503FA05F424FA05F68F
:100430005E4012BF1643B2FA82F502FA05F4C5F126
:1004400020051EBF22FA05FC44EA0C04203556EABA
:10045000044C4FEA144418BF641C4FF000084FF0DE
:100460000009904271EB030C39D3002919BFB1FA8E
:1004700081F701FA07F6B0FA80F700FA07F6C7F13C
:1004800020071EBF20FA07FC46EA0C062037B6FB01
:10049000F4FCA7EB0507103F07F01F0BCBF120067C
:1004A0000CFA0BFB2CFA06F644BFB3460026202FAD
:1004B000A4BF5E464FF0000B5BEA060C08BF4FF08E
:1004C000010B19EB0B09ABFB027C48EB0608C01BC8
:1004D00006FB02CC0BFB03CC71EB0C01C1E70B4616
:1004E000024641464846BDE8F08B13B54FF0000088
:1004F0004FF00001AFF30080BDE81C4070470000E2
:100500000FB4044910B503AA029800F049FB10BCCF
:100510005DF814FB000000200FB41CB5074B06AAC1
:100520007B4469460090059800F00BFB002069466B
:1005300000F01AFB1CBC5DF814FB0000450600002F
:1005400070B5044685690068C10601D5302600E013
:100550002026C00707D070BDD4E90121304690475E
:10056000206A401C20626D1EF6D570BD70B5044631
:1005700085690078C00707D170BDD4E9012120202A
:100580009047206A401C20626D1EF6D570BD70B584
:100590000C460546012A05D02878800600D5EA6970
:1005A000002302E0012305E05B1C934202D2E05CE1
:1005B0000028F9D1A869E618C01AA861286A184469
:1005C00028622846FFF7BCFF04E0D5E9012114F8B2
:1005D000010B9047B442F8D32846FFF7C7FF70BD20
:1005E0002DE9F0410646002410687529314616A50C
:1005F00010D0AFF30080002802DA404213A507E0D4
:1006000031688A0701D512A502E0490704D511A572
:10061000012401E0AFF3008000210A2206F1240743
:1006200009E0B0FBF2FCB0FBF2F302FB1C0030303F
:1006300078541846491C0028F3D123462A463046F0
:10064000BDE8F04100F01EBA000000002D000000DF
:100650002B0000002000000070B504460D46214626
:100660001068AFF300802188090502D50F4A7A444B
:1006700002E00E4A7A440E32002104F1240305E020
:1006800000F00F060009965D5E54491C0028F7D162
:1006900020780023000704D5702D02D009B1022371
:1006A00011322046BDE8704000F0ECB996C200005F
:1006B0002DE9F05F894604464FF0000ADFF824B1C7
:1006C000FB44C0F820A02046E168884700287DD080
:1006D000252806D0D4E901219047206A401C2062D9
:1006E000F1E700255F462046E16888472028064656
:1006F00007DB312E05D2B81910F8200C08B10543DC
:10070000F1E7A80701D525F00405C4F81CA00027CF
:10071000C4F818A02A2E09D0304605F047FB38B39C
:1007200004EB8708303EC8F8186019E059F8041B3C
:10073000204604EB87029161E1688847012F064655
:1007400018D1E069002820DA25F020051DE0D8F84E
:10075000180000EB800006EB40003038C8F81800A5
:100760002046E1688847064605F020FB0028EED1C8
:10077000012F0AD02E2E08D12046E16888477F1C21
:100780000646022F45F02005C4DBA069002803DAE5
:10079000404245F00105A061E80701D025F01005B1
:1007A000A6B1A6F14100192802D8203645F400650B
:1007B0004A463146204625604D46FFF72FFD60B181
:1007C000012807D0ED1D25F0070000E007E000F14B
:1007D000080978E705F1040975E730467AE7206AE9
:1007E000BDE8F09F6CC2000030B505460B462A46B6
:1007F00013F8014B12F8010B08B1A042F8D01CB15C
:10080000002802D06D1CF1E7284630BD10B5431C0E
:1008100002E010F8011B71B18107FAD14FF00132EB
:1008200002C88C1A8C4314EAC211F9D0C01A0A0605
:1008300003D0C01E10BDC01A10BD0A0401D0801E16
:1008400010BD0902FCD0401E10BD032A40F23080CA
:1008500010F0030C00F0158011F8013BBCF1020F01
:10086000624498BF11F801CB00F8013B38BF11F882
:10087000013BA2F1040298BF00F801CB38BF00F899
:10088000013B11F0030300F02580083AC0F0088016
:1008900051F8043B083A51F804CBA0E80810F5E7FA
:1008A000121D5CBF51F8043B40F8043BAFF30080DD
:1008B000D20724BF11F8013B11F801CB48BF11F852
:1008C000012B24BF00F8013B00F801CB48BF00F822
:1008D000012B704710B5203AC0F00B80B1E81850DA
:1008E000203AA0E81850B1E81850A0E81850BFF41A
:1008F000F5AF5FEA027C24BFB1E81850A0E81850B9
:1009000044BF18C918C0BDE810405FEA827C24BF0C
:1009100051F8043B40F8043B08BF7047D20728BF9A
:1009200031F8023B48BF11F8012B28BF20F8023BE9
:1009300048BF00F8012B704702F0FF0343EA03228F
:1009400042EA024200F002B84FF000020429C0F06F
:10095000128010F0030C00F01B80CCF1040CBCF1F1
:10096000020F18BF00F8012BA8BF20F8022BA1EB43
:100970000C0100F00DB85FEAC17C24BF00F8012B28
:1009800000F8012B48BF00F8012B70474FF0000220
:1009900000B5134694469646203922BFA0E80C5075
:1009A000A0E80C50B1F12001BFF4F7AF090728BF50
:1009B000A0E80C5048BF0CC05DF804EB890028BFCC
:1009C00040F8042B08BF704748BF20F8022B11F0F5
:1009D000804F18BF00F8012B704770477047704771
:1009E0000048704724520120704770477047704795
:1009F00038B504460A4600206946AFF30080002857
:100A000008BF38BD02460099204600F0DFF80120FB
:100A100038BD012000F0F8B8F8B5AFF30080054606
:100A200000200C46102000BF0646A819A0420DD990
:100A3000324669460020AFF30080070008BF00F08F
:100A4000E3F80098A04218BF0546C419FFF7C8FF95
:100A500005600746F01D20F007004619284600F003
:100A60000AF8B44208BFF8BDA21B31463868BDE899
:100A7000F84000F0ABB800210160C0E901107047F8
:100A8000102070472DE9F0470D46994692460446DE
:100A900000F124080168880604D5E06921F01001FE
:100AA000216000E00120A84201DD471B00E0002793
:100AB000A1697A1902EB0900081AA0612078C00622
:100AC00002D42046FFF73CFD002608E0D4E90121CE
:100AD0001AF806009047206A401C761C20624E459A
:100AE000F4DB2078C0060AD52046FFF729FD06E092
:100AF000D4E9012130209047206A401C2062381E32
:100B0000A7F10107F4DC07E0D4E9012118F805009A
:100B10009047206A401C2062281EA5F10105F3DCE5
:100B20002046FFF723FD2078000602D50220BDE80D
:100B3000F0870120FBE7000001694A1C0261087888
:100B4000704700B58FB0CDE901310021059105490D
:100B50007944CDE9031011466846FFF7A9FD0FB0AF
:100B600000BD0000E5FFFFFF0A6802F8010B0A6004
:100B7000704710B5436913B1AFF3008001E0FFF790
:100B800006FD012010BD127800F124010A70002238
:100B90004A700122EDE711684FF0FF32E9E70000EB
:100BA000074B70B50D467B44FFF7CBFF0446284644
:100BB00000F026F810B14FF0FF3070BD204670BD38
:100BC0005B6E0000004870471C52012003464068DD
:100BD0008C46002818BF88423CBF03464068F8D3C3
:100BE00018681844884207D00CF1030020F0070071
:100BF000001D411A521A0146081D0A60FFF7E1BBA9
:100C0000007B00F08000704710B500F039F8BDE8B7
:100C1000104000F02FB870477546FFF7D3FFAE467F
:100C200005006946534620F00700854618B020B5F8
:100C3000FFF786FBBDE820404FF000064FF00007AD
:100C40004FF000084FF0000B21F00701AC46ACE874
:100C5000C009ACE8C009ACE8C009ACE8C0098D46E1
:100C6000704710B50446AFF300802046BDE8104041
:100C7000FFF7F2BA002801D005F0D2B870470000A3
:100C800010B5012805D0002103A000F021F80120B3
:100C900010BD09A1F8E7000053494752544D454D96
:100CA0003A204F7574206F662068656170206D650D
:100CB0006D6F7279000000003A2048656170206D08
:100CC000656D6F727920636F727275707465640000
:100CD00070B505460C460A2000E06D1C00F011F8C6
:100CE00035B128780028F8D102E0641C00F009F83A
:100CF00014B120780028F8D1BDE870400A20AFF385
:100D0000008008B569468DF800000320ABBE08BD21
:100D100010B501240421034801F062F800B1002459
:100D2000204610BD001002407047000010B5044678
:100D30002146024801F06EFE10BD0000680100204F
:100D400010B5044801F079FE042801D0012010BD3F
:100D50000020FCE76801002010B5002400F014F822
:100D6000012801D0012010BD064801F087FF04468C
:100D700034B94FF40061034801F002FD00B10124D1
:100D80002046F0E76801002008B501200090FFF739
:100D9000BFFF08B9002000909DF8000008BD0000CA
:100DA0002DE9F04104460D461646002733462A46F3
:100DB0002146044802F09CF800B101273846BDE8FE
:100DC000F08100006801002008B501200090002398
:100DD0001A4669460248006807F09CFC08BD0000FE
:100DE000A00000202DE9F04104460D4616460027DC
:100DF00033462A462146044802F02CF900B1012767
:100E00003846BDE8F08100006801002008B50220E6
:100E1000009000231A4669460248006807F07AFCF1
:100E200008BD0000A000002000BFFEE710B502488A
:100E300000F024FC10BD0000EC01002010B50248B9
:100E400000F01CFC10BD00004C0200200146087898
:100E500010381823B0FBF3F20848805CC865032AF9
:100E600005D908686FF30900001D886503E008686C
:100E70006FF309008865886D704700007CBE00082C
:100E8000014600208A6A8B69CBB932B1012A0DD0A4
:100E9000022A03D0032A10D10EE000BFCB6A03F070
:100EA0008073B3F1807F00D1012007E0CB6AB3F1FA
:100EB000C07F00D1012001E000E000BF34E08B6979
:100EC000B3F5005F1AD132B1012A07D0022A03D04C
:100ED000032A11D10AE000BF01200EE0CB6A03F023
:100EE0008073B3F1807F00D1012006E0CB6AB3F1BB
:100EF000C07F00D1012000E000BF15E032B1012A1F
:100F000005D0022A04D0032A0CD103E000BF00BFA1
:100F1000012008E0CB6A03F08073B3F1807F00D139
:100F2000012000E000BF00BF704730B504682468AE
:100F300024F4802405682C60046863608468402C75
:100F400004D10468A2600468E16003E00468A16061
:100F50000468E26030BD704772B600BFFEE730B58E
:100F600004460D4600222946204600F001F830BD17
:100F7000F0B50346012500241148807B02281CDAC5
:100F800000200F4EB67B0E4FB8553846867B001DAD
:100F900040F82630001F867B0C3082553E46B07BE1
:100FA000461CBE73044604F1300008703A204870B5
:100FB0002F2088700020C87000252846F0BD000052
:100FC000E037002010B5002201B909E0012901D164
:100FD0000A0205E0022901D10A0201E04FF4407241
:100FE0000E4B1B6823F440730C4C236023461B6894
:100FF0001343236023461B6823F0F8032360234632
:101000001B68022444EAC0042343044C23602346A3
:101010001B6843F48033236010BD0000103C024085
:101020001C48006800F40070B0B11A48006820F451
:1010300000701849086000BF0846006840F400606E
:1010400008600846006820F40060086000BF084699
:10105000006840F4007008600E48006800F480608A
:10106000B0B10C48006820F480600A49086000BFF5
:101070000846006840F4805008600846006820F484
:101080008050086000BF0846006840F48060086037
:1010900070470000003C02400A4A126822F4407285
:1010A000084B1A601A46126842F004021A601A4687
:1010B00012684FF4803343EA00231A43014B1A604D
:1010C00070470000103C0240074A126822F4407248
:1010D000054B1A601A4612681A601A46126842F0E6
:1010E00001021A6001707047103C024010B50D49B2
:1010F000096821F440710B4C21602146096841F4D4
:10110000407121602146096841F0010121600260BF
:1011100000BF00BF00BFBFF36F8F00BF00BF00BFA5
:10112000436010BD103C0240084A126822F440722D
:10113000064B1A601A46126842F480721A601A4608
:10114000126842F001021A6001807047103C0240B0
:10115000084A126822F44072064B1A601A46126856
:1011600042F400721A601A46126842F001021A60D4
:1011700001607047103C02402348006800F01000F6
:1011800040B12248C06940F010002049C8611020D9
:101190001D4908601C48006800F0200040B11B4851
:1011A000C06940F008001949C8612020164908604C
:1011B0001548006800F0400040B11448C06940F094
:1011C00004001249C86140200F4908600E480068B9
:1011D00000F0800040B10D48C06940F002000B49AA
:1011E000C8618020084908600748006800F00200D4
:1011F00040B10648C06940F020000449C86102209F
:1012000001490860704700000C3C02400C0D0020B2
:1012100070B50446002500201449C86100F0F8FDAF
:10122000054609E0601C38B124B100F0F1FD401B17
:10123000A04201D9032070BD0D48006800F4803041
:101240000028EFD10A48006800F0010010B1012029
:10125000074908600648006800F0F20018B1FFF77F
:101260008BFF0120E7E70020E5E700000C0D0020E0
:101270000C3C024000200C4909684862801E0A4963
:101280000968086108480068C06840F00100064924
:101290000968C86004480068006840F0010002491D
:1012A0000968086070470000AC02002000BF0F48CA
:1012B0000068006A41F21111084068B90B480068E3
:1012C000006A8910084038B908480068006820F0B2
:1012D000010006490968086000BF04480068C0684A
:1012E00020F0010001490968C8607047AC02002085
:1012F0002DE9F04105460E460024002731192868E3
:1013000009F0D4FB241D3119287909F0DBFB641C9A
:101310003119687909F0D6FB641C3119E88809F0A5
:10132000B8FBA41C3119287A09F0CCFB641C3119D4
:10133000687A09F0C7FB641C3119A87A09F0C2FB6E
:10134000641C3119E87A09F0BDFB641C3119287B53
:1013500009F0B8FB641C284606F0B4FC07463019B7
:101360003A4605F10D01FFF770FAE01984B2311920
:10137000B5F82D0409F085FBA01C84B22046BDE819
:10138000F081000010B508480078002807DD00F063
:1013900041F805480078401E0349087002E003A0A8
:1013A000FFF7AEF810BD00005801002052656376CB
:1013B000204672616D652054696D656F75742021DA
:1013C00021210D0A0000000070B500244FF4807048
:1013D000FEF7C8FF0446C4B1204608F049FC0B489C
:1013E0004068026809480168201DFFF72EFA0A23A9
:1013F000012221460648006807F08CF905460DB920
:1014000004F0A4FD2046FEF7DCFF70BD5001002073
:101410001400002010B500F001F810BD10B504480C
:101420000078044908700122034802F074FC10BDE2
:101430009C0700202C000020800C002010B50446E2
:101440002078134908600846006800020860607848
:10145000096808430E4908600846006800020860F1
:10146000A078096808430A49086008460068000235
:101470000860E07809680843054908600846211DAE
:1014800002680448FFF7E1F9FFF7C8FF10BD00004C
:10149000300000209C070020014600202C4A914289
:1014A00003D2B1F1006F00D350E02A4A914204D236
:1014B000274A914201D3012048E0274A914204D2B1
:1014C000244A914201D3022040E0244A914204D2AE
:1014D000214A914201D3032038E0214A914204D2AB
:1014E0001E4A914201D3042030E01E4A914204D2A8
:1014F0001B4A914201D3052028E01B4A914204D2A5
:10150000184A914201D3062020E0184A914204D2A1
:10151000154A914201D3072018E0154A914204D29E
:10152000124A914201D3082010E0124A914204D29B
:101530000F4A914201D3092008E00F4A914204D298
:101540000C4A914201D30A2000E00B2070470000B2
:10155000004000080080000800C0000800000108EA
:101560000000020800000408000006080000080847
:1015700000000A0800000C0800000E0801460020C8
:1015800029B1012903D0022901D0032902D14FF446
:10159000804005E0042901D1880301E04FF40030C8
:1015A000704770B50446A56D00F032FC064694F80D
:1015B0003500022808D08020606500BF002084F834
:1015C000340000BF012070BD2068006820F01600C4
:1015D000216808602068406920F080002168486127
:1015E000206C08B9A06C28B12068006820F00800C1
:1015F000216808602068006820F001002168086008
:1016000010E000F005FC801B05280BD92020606548
:10161000032084F8350000BF002084F8340000BFA8
:101620000320D0E72068006800F001000028E8D11E
:1016300094F85C103F208840A860012084F83500B1
:1016400000BF002084F8340000BF00BFBBE70146A4
:1016500091F83500022803D08020486501207047AA
:10166000052081F835000868006820F001000A684C
:1016700010600020F3E70146486D7047F8B5044656
:10168000002000908C4800684FF41651B0FBF1F731
:10169000A56D2E6894F85C1008208840304098B101
:1016A0002068006800F0040070B12068006820F035
:1016B00004002168086094F85C1008208840A86045
:1016C000606D40F00100606594F85C100120884076
:1016D000304068B12068406900F0800040B194F863
:1016E0005C1001208840A860606D40F002006065D9
:1016F00094F85C1004208840304068B1206800688D
:1017000000F0020040B194F85C1004208840A8600A
:10171000606D40F00400606594F85C101020884013
:10172000304078B32068006800F0080050B394F8A7
:101730005C1010208840A8602068006800F48020B9
:1017400080B12068006800F4002028B9206CC8B17E
:101750002046216C884715E0A06C98B12046A16C0A
:1017600088470FE02068006800F4807028B920687E
:10177000006820F0080021680860206C10B1204645
:10178000216C884794F85C10202088403040002865
:1017900065D02068006800F0100000285FD094F841
:1017A0005C1020208840A86094F83500052828D1D6
:1017B0002068006820F016002168086020684069F1
:1017C00020F0800021684861206C08B9A06C28B125
:1017D0002068006820F008002168086094F85C1018
:1017E0003F208840A860012084F8350000BF002019
:1017F00084F8340000BF206D10B12046216D884769
:10180000F8BD2068006800F4802080B1206800687E
:1018100000F4002028B9606C10B12046616C884744
:101820001DE0E06BD8B12046E16B884717E02068E7
:10183000006800F4807068B92068006820F010002B
:1018400021680860012084F8350000BF002084F87A
:10185000340000BFE06B10B12046E16B8847606D3B
:1018600038B3606D00F00100F0B1052084F8350058
:101870002068006820F001002168086000BF00981F
:10188000401C0090B84200D905E02068006800F0D4
:1018900001000028F3D100BF012084F8350000BF0B
:1018A000002084F8340000BFE06C10B12046E16CE9
:1018B000884700BFA4E70000500000202DE9F04158
:1018C0000446002500F0A4FA074614B90120BDE83B
:1018D000F081606A00B100BF022084F8350000BFCB
:1018E000002084F8340000BF2068006820F0010068
:1018F000216808600AE000F08BFAC01B052805D9B2
:1019000020206065032084F83500E0E72068006847
:1019100000F001000028EED120680568214805404C
:10192000D4E901010843E16808432169084361697A
:101930000843A1690843E1690843216A0843054354
:10194000606A042803D1D4E90B01084305432068E9
:1019500005602068456925F00705606A0543606AEF
:1019600004280DD1A06A0543E06A48B12046FFF77C
:1019700087FA28B140206065012084F83500A6E789
:10198000206845612046FFF761FA064694F85C102E
:101990003F208840B06000206065012084F8350059
:1019A000002094E73F8010F02DE9F04704460D46F3
:1019B00016461F464FF00008D4F8589000BF94F820
:1019C0003400012802D10220BDE8F087012084F80C
:1019D000340000BF94F83500012825D1022084F896
:1019E0003500002060653B46324629462046FFF719
:1019F0009CFA94F85C103F208840C9F808002068E1
:101A0000006840F0160021680860206C28B120684A
:101A1000006840F00800216808602068006840F015
:101A200001002168086006E000BF002084F834004F
:101A300000BF4FF002084046C6E7000070B50446FC
:101A400000F0E6F906462546681C10B10448007807
:101A5000054400BF00F0DCF9801BA842FAD370BD3A
:101A60004C0000202DE9F04104460E4601270025D8
:101A700000BF2548007E012802D10220BDE8F08188
:101A800001202149087600BF4CF25030FFF7C0FB1F
:101A90000746002F31D1401E3060206801280FD149
:101AA000207C6168FFF7F8FA4CF25030FFF7B0FB8A
:101AB00007461648006820F00400144908601AE040
:101AC000A56812E0217C2846FFF77CFA4CF25030E2
:101AD000FFF79EFB07460D48006820F0FA000B490F
:101AE00008600FB1356005E06D1CD4E902100844B0
:101AF000A842E7D800BFFFF793FA00BF00200249D1
:101B0000087600BF3846B9E70C0D0020103C0240B3
:101B10000348006840F00040014908600020704719
:101B2000103C02402DE9F04106460F4614461D4682
:101B30004FF0010800BF1F48007E012802D102209B
:101B4000BDE8F08101201B49087600BF4CF25030FF
:101B5000FFF75EFB8046B8F1000F23D126B9E1B252
:101B60003846FFF7B1FA12E0012E04D1A1B238468F
:101B7000FFF7DAFA0BE0022E04D121463846FFF7D0
:101B8000E7FA04E022462B463846FFF7AFFA4CF25C
:101B90005030FFF73DFB80460748006820F0010009
:101BA0000549086000BF00200249087600BF404692
:101BB000C6E700000C0D0020103C0240002009493F
:101BC000096801F0004159B10749064A0C3A116011
:101BD000064911600349096801F0004101B1012083
:101BE00070470000103C024023016745AB89EFCDF0
:101BF000F8B502460B460025002400200021D5E060
:101C0000012606FA01F51E6806EA0504AC4274D105
:101C10001E7906F00306012E04D01E7906F0030695
:101C2000022E13D190684F000326BE40B0434F00F0
:101C3000DE68BE4030439060506801268E40B0435D
:101C40001E79C6F300168E40304350601E7906F0B0
:101C50000306032E09D0D0684F000326BE40B043D0
:101C60004F009E68BE403043D0601E7906F00306E8
:101C7000022E13D1CF0802F1200656F827004E0796
:101C8000F70E0F26BE40B0434F07FF0E1E69BE4041
:101C90003043CF0802F1200646F8270010684F00B5
:101CA0000326BE40B0431E7906F003064F00BE4037
:101CB000304310605E6806F44036002E75D000BFD9
:101CC000002600963B4E366846F48046394F3E600B
:101CD0003E46366806F48046009600BF00BF364E8A
:101CE0008F0856F827008E07370F0F26BE40B043E7
:101CF000324EB24202D1002624E056E0304EB242CB
:101D000001D101261EE02F4EB24201D1022619E078
:101D10002D4EB24201D1032614E02C4EB24201D125
:101D200004260FE02A4EB24201D105260AE0294ED0
:101D3000B24201D1062605E0274EB24201D1072664
:101D400000E008268F073F0FBE4030431A4E8F0831
:101D500046F82700214E3068A0435E6806F48036BE
:101D600006B120431D4E3060361D3068A0435E68CA
:101D700006F4003606B12043184E361D3060361D7D
:101D80003068A0435E6806F4801606B12043134E07
:101D900008363060361D3068A0435E6806F40016D1
:101DA00006B120430D4E0C363060491C1029FFF45B
:101DB00027AFF8BD44380240083801400000024017
:101DC0000004024000080240000C024000100240E3
:101DD0000014024000180240001C0240003C014078
:101DE000024613690B400BB1012000E00020704750
:101DF00010B5426921EA020302EA010443EA0443FE
:101E0000836110BD0AB1816101E00B0483617047F9
:101E10000148006870470000440000200348006843
:101E200003490978084401490860704744000020CC
:101E30004C00002010B50D48006840F400700B49BC
:101E400008600846006840F4806008600846006842
:101E500040F480700860032000F0C8F80F2000F004
:101E600007F800F04BF8002010BD0000003C0240D5
:101E700070B588B0044600250026002221461920AE
:101E800000F076F8192000F063F800BF0020019000
:101E90001648006840F001001449086008460068D0
:101EA00000F00100019000BF00BF02A903A800F0EC
:101EB00073F900F0A9F945000D48B5FBF0F0461E96
:101EC0000C480D49086040F2E7310B48C16046609C
:101ED00000210161816001F0C3F920B9064801F0D9
:101EE00037FA08B070BD0120FBE70000443802401B
:101EF00040420F0000000140C40C002008B500BFA4
:101F0000002000901148006840F480400F490860AC
:101F10000846006800F48040009000BF00BF00BF8A
:101F200000200090081F006840F08050091F0860E2
:101F30000846006800F08050009000BF00BF0022FB
:101F40000F21901E00F014F808BD00004438024034
:101F500001460846002809DB00F01F0301229A40D1
:101F600043099B0003F1E023C3F8002100BF704741
:101F70002DE9F05F80460D461646002703F06AFE05
:101F8000074639462A46334601F00700C0F1070AE2
:101F9000BAF1040F02D94FF0040A01E0C0F1070AB8
:101FA000D14600F1040ABAF1070F02D24FF0000A3D
:101FB00001E0A0F1030AD4464FF0010A0AFA09FA37
:101FC000AAF1010A0AEA020A0AFA0CFA4FF0010B16
:101FD0000BFA0CFBABF1010B0BEA030B4AEA0B0407
:101FE0002146404603F03EFEBDE8F09F00BF00F0F2
:101FF0000702064B19684FF6FF031940044B0B43C9
:1020000043EA0221014B196000BF70470CED00E06C
:102010000000FA0570B504460D460CB9012070BDEC
:102020005848006800F00700A84209D255490D70D1
:102030000846006800F00700A84201D00120EEE742
:10204000207800F0020002281DD1207800F0040062
:10205000042805D14C48006840F4E0504A49086023
:10206000207800F00800082805D14748006840F4AF
:102070006040454908604448006820F0F000A168CD
:10208000084341490860207800F00100A8B3606867
:10209000012807D13C4808380068C0F34040B8B96F
:1020A0000120BCE76068022802D06068032807D1DD
:1020B000354808380068C0F3406048B90120AEE7F1
:1020C000314808380068C0F3400008B90120A6E78D
:1020D0002D48006820F00300616808432A49086021
:1020E000FFF796FE064609E0FFF792FE801B41F2DD
:1020F0008831884202D9032091E707E0224800682E
:1021000000F00C006168B0EB810FEDD11D48006854
:1021100000F00700A84209D91A490D700846006866
:1021200000F00700A84201D0012078E7207800F0F5
:102130000400042807D11448006820F4E050E16846
:10214000084311490860207800F00800082808D1E9
:102150000D48006820F46040216940EAC1000A4946
:10216000086000F061F808490968C1F30311074AE3
:10217000515CC8400649086006480068FFF778FED1
:1021800000204CE7003C02400838024084BE0008B2
:1021900050000020480000200F2202600D4A126803
:1021A00002F0030242600B4A126802F0F002826001
:1021B000084A126802F4E052C260064A126802F449
:1021C0006042D2080261044A126802F007020A6003
:1021D0007047000008380240003C02400148006897
:1021E000704700005000002000B5FFF7F7FF0449DA
:1021F0000968C1F38221034A515CC84000BD000058
:102200000838024094BE000800B5FFF7E7FF044914
:102210000968C1F34231034A515CC84000BD000067
:102220000838024094BE00082DE9F047002400253C
:102230000026A1462548006800F00C0020B10428C3
:1022400005D008283AD105E0DFF8849039E0DFF8BE
:10225000849036E01D48001F006800F03F041B48D2
:10226000001F006800F4800078B11A481749091F60
:102270000968C1F38811A0FB0170014622460023C2
:102280003846FEF7C5F805460EE011480F49091F0C
:102290000968C1F38811A0FB0170014622460023A2
:1022A0003846FEF7B5F805460848001F0068C0F339
:1022B0000140401C4600B5FBF6F902E0DFF8109043
:1022C00000BF00BF4846BDE8F08700000838024064
:1022D0000024F40000127A00F8B504460CB901207D
:1022E000F8BD207800F00100002874D0F94800689B
:1022F00000F00C0004280DD0F648006800F00C0037
:10230000082813D1F348001F006800F48000B0F5DE
:10231000800F0BD1EF4808380068C0F34040002818
:1023200059D06068002856D10120D9E700BF606805
:10233000B0F5803F08D1E7480838006840F48030A5
:10234000E449083908601EE06068B0F5A02F0DD19F
:10235000E0480838006840F48020DE490839086009
:102360000846006840F4803008600CE0D94808381E
:10237000006820F48030D7490839086008460068B2
:1023800020F48020086000BF606890B1FFF740FD36
:10239000054606E0FFF73CFD401B642801D90320F9
:1023A0009EE7CC4808380068C0F340400028F1D0D0
:1023B00011E0FFF72DFD054606E0FFF729FD401B64
:1023C000642801D903208BE7C24808380068C0F3AD
:1023D00040400028F1D1207800F0020002285FD1AF
:1023E000BC48006800F00C0058B1BA48006800F022
:1023F0000C0008281CD1B748001F006800F48000BA
:10240000B0B9B44808380068C0F3400020B1E068B3
:10241000012801D0012063E7AE480838006820F0A9
:10242000F800216940EAC100AA490839086037E08C
:10243000E06800B30120A8490860FFF7E9FC054601
:1024400006E0FFF7E5FC401B022801D9032047E71F
:10245000A04808380068C0F340000028F1D09D482B
:102460000838006820F0F800216940EAC100994965
:102470000839086014E0002097490860FFF7C8FC9D
:10248000054606E0FFF7C4FC401B022801D90320E3
:1024900026E7904808380068C0F340000028F1D1D2
:1024A000207800F0080008282CD16069A8B101202C
:1024B0008A490860FFF7ACFC054606E0FFF7A8FC78
:1024C000401B022801D903200AE782486C300068CB
:1024D000C0F340000028F1D014E000207F490860DC
:1024E000FFF796FC054606E0FFF792FC401B02282A
:1024F00001D90320F4E677486C300068C0F340004F
:102500000028F1D1207800F00400042870D10027C1
:1025100070483830006800F0805090B900BF00204B
:1025200000906C483830006840F08050694938317C
:1025300008600846006800F08050009000BF00BFAF
:1025400001276748006800F48070B0B964480068EB
:1025500040F4807062490860FFF75AFC054606E0C7
:10256000FFF756FC401B022801D90320B8E65C485F
:10257000006800F480700028F2D000BFA068012835
:1025800008D154486830006840F001005149683172
:1025900008601DE0A06805280DD14E48683000682D
:1025A00040F004004B49683108600846006840F07C
:1025B000010008600CE047486830006820F0010026
:1025C0004449683108600846006820F0040008604B
:1025D00000BFA068A8B1FFF71BFC054609E0FFF7A4
:1025E00017FC401B41F28831884202D9032077E66C
:1025F00026E0384868300068C0F340000028EED07C
:1026000013E0FFF705FC054608E0FFF701FC401B5F
:1026100041F28831884201D9032061E62D486830B3
:102620000068C0F340000028EFD1012F07D12948EE
:102630003830006820F0805026493831086000BFEB
:10264000A069002845D02348006800F00C00082845
:102650005DD0A069022845D100201F490866FFF718
:10266000D7FB054606E0FFF7D3FB401B022801D944
:10267000032035E6174808380068C0F3406000289A
:10268000F1D1D4E907010843616A40EA81110122CE
:10269000A06AC2EB500041EA00412C20005D41EAF3
:1026A00000600C49091F086001200B490866FFF70C
:1026B000AFFB054606E0FFF7ABFB401B022801D944
:1026C00003200DE6034808380068C0F34060002886
:1026D000F1D049E00838024000004742800E4742EE
:1026E00000700040002021490866FFF791FB054675
:1026F00006E0FFF78DFB401B022801D90320EFE520
:102700001B480068C0F340600028F2D12CE0A069AB
:10271000012800D1E4E51648001D0668A0690128DB
:1027200020D006F48001E06981421BD106F03F0110
:10273000206A814216D147F6C0703040616AB0EB22
:10274000811F0FD106F440310122A06AC2EB500074
:10275000B1EB004F06D106F070612C20005DB1EBAB
:10276000006F01D00120BBE50020B9E50000474221
:102770000038024010B50446FEF7D6FA10BD00003E
:10278000F0B589B004460E460027032084F83400D3
:10279000606C032820D0B6F5805F04D1A06B40F0B8
:1027A0008050A0631CE0B6F5006F07D1204602F010
:1027B000DCFC0546A06B2843A06311E03EB920462F
:1027C00002F09FFC0546A06B2843A06308E0A06BC5
:1027D00040F00060A06303E0A06B40F08050A06375
:1027E000A06B38B1174821688863012084F8340051
:1027F000012713E060680390A0680490E0680590EA
:10280000069660690790A069089006A807C88DE839
:102810000700206803A90EC901F0DAFD4FF400712A
:10282000206801F051FE054635B1064821688863ED
:10283000A06B2843A0630127012084F834003846A8
:1028400009B0F0BDFF0540007047000010B502461A
:10285000506E800F0870506EC0F383604870506EE9
:10286000C0F301608870506E000CC870B2F864004C
:10287000000A087192F864004871906E000DC880DB
:10288000906EC0F3034008726820805AC0F3C030D5
:1028900048726820805AC0F3803088726820805A5D
:1028A000C0F34030C8726820805AC0F3003008730B
:1028B00000204873506C002836D16820805A80056B
:1028C000030DD06E43EA90700861D06EC0F3C26011
:1028D0000875D06EC0F302604875D06EC0F34250E8
:1028E0008875D06EC0F38240C875D06EC0F3C23018
:1028F00008760869401C50650B7E506D03F0070395
:102900009B1C01249C4060435065087A00F00F0333
:10291000012098409065D2E915035B0A5843D065C1
:102920004FF40073136621E0506C012813D1682026
:10293000805C8006830AD06E43EA10400861086913
:10294000401C83025365536DD3654FF40073936548
:10295000936D13660AE02E4813689863906B40F0FD
:1029600080509063012082F8340010BD6C20805AA2
:10297000C0F3803001F8190F6C20805AC0F3C610E4
:1029800048706C20805C00F07F008870106FC00F72
:10299000C870106FC0F341700871106FC0F382608F
:1029A0004871106FC0F383508871106FC0F34050AE
:1029B000C87100200872106FC0F300404872702088
:1029C000805AC0F3C03088727020805AC0F38030C3
:1029D000C8727020805AC0F3403008737020805A4B
:1029E000C0F3003048737020805AC0F38120887390
:1029F0007020805AC0F30120C8737020805CC0F33F
:102A0000460008740120487419390020ADE7000021
:102A1000FF0540000246506C0860906C4860D06C26
:102A20008860106DC860506D0861906D4861D06D10
:102A30008861106EC86100207047F8B50446002018
:102A400000906946204602F044FB054615B1A06B94
:102A50002843A0630098C0F343263046F8BD000029
:102A600070B50446256B2068406BC0F3C03030B1B0
:102A700005F0080018B1204602F006FBF8E02068D7
:102A8000406BC0F30020002862D04FF480702168B2
:102A900088632068C06B4CF23A3188432168C86370
:102AA0002068C06A20F001002168C86205F00800B3
:102AB00038B305F0020010B905F0200050B12068CD
:102AC00001F046FE06462EB1A06B3043A0632046BF
:102AD000FFF7BAFE40F23A5021688863012084F87B
:102AE00034000020206305F0010010B905F0020059
:102AF00018B1204600F0A4FABAE0204600F0A5FA8A
:102B0000B6E005F080000028B8D005F0200050B1F4
:102B1000206801F01DFE06462EB1A06B3043A06375
:102B20002046FFF791FE05F001000028A6D105F030
:102B300002000028A2D12068C06A20F008002168A5
:102B4000C862012084F83400204600F07EFA8FE04D
:102B50002068406BC0F3803030B105F0080018B138
:102B6000204602F036FB83E02068406B40F23A21B9
:102B7000084008B1012000E00020002878D020683B
:102B8000406BC0F3400018B1A06B40F00200A0639E
:102B90002068406BC0F3C00018B1A06B40F0080083
:102BA000A0632068406BC0F3401018B1A06B40F0E8
:102BB0002000A0632068406BC0F3001018B1A06B28
:102BC00040F01000A0632068406BC0F3402018B1B3
:102BD000A06B40F00800A06340F23A70216888635F
:102BE0002068C06B40F23A3188432168C86320688E
:102BF00001F0AEFDA16B0843A06305F0080040B1F1
:102C0000012084F83400002020632046FFF71CFEDA
:102C10002EE005F0800000B305F0100010B905F0BB
:102C2000200050B11348E16B0865E06BFEF70FFD23
:102C300098B1E06B02F07BF81AE005F0010010B9E2
:102C400005F0020050B10C48216C0865206CFEF7BD
:102C5000FEFC10B1206C02F03DF809E00020A063FA
:102C6000012084F83400002020632046FFF782FD15
:102C700070BD00002F4D0008D54C000810B504466B
:102C80000CB9012010BD94F8340020B90020207741
:102C9000204600F067F8032084F83400204600F056
:102CA0000BF808B10120EDE70020A06320630120AC
:102CB00084F834000020E5E770B58AB004460020AF
:102CC000049005900690079008907620099007A838
:102CD00007C88DE80700206804A90EC901F078FB39
:102CE000064616B101200AB070BD00201B490860DD
:102CF000206801F087FB01201849A039C1F8A00025
:102D0000204602F05BF905463DB1012084F834000D
:102D1000A06B2843A0630120E5E7204602F0CCF831
:102D200005463DB1012084F83400A06B2843A06320
:102D30000120D8E74FF40071206801F0C5FB05467B
:102D40004DB1074821688863A06B2843A063012028
:102D500084F83400C7E70020C5E70000A0802542C2
:102D6000FF05400010B586B00446142101A8FDF708
:102D70000DFE5849206888427ED100BF0020009097
:102D80005548006840F400605349086008460068F0
:102D900000F40060009000BF00BF00BF0020009062
:102DA0004D481438006840F004004B49143908605D
:102DB0000846006800F00400009000BF00BF00BF9C
:102DC000002000900846006840F0080008600846AF
:102DD000006800F00800009000BF00BF4FF4F850FA
:102DE00001900220029001200390032004900C2007
:102DF000059001A93948FEF7FBFE0420019002204E
:102E0000029001200390032004900C20059001A95A
:102E10003348FEF7EDFE3348334908604FF0006059
:102E20004860002130488160C1604FF480610161D9
:102E300089004161002181612021C161002101627D
:102E400004214162032181624FF40001C1628910B3
:102E50000163FEF733FD08B1FEF77EF800BF22489C
:102E60002064846300BF1F484830204908604FF049
:102E700000604860402100E029E01C48816000219A
:102E8000C1604FF480610161890041618900816105
:102E90002021C1610021016204214162032181627C
:102EA0004FF40001C16289100163FEF707FD08B10C
:102EB000FEF752F800BF0D48E063846300BF0022B4
:102EC00005213120FFF754F83120FFF741F806B013
:102ED00010BD0000002C01404438024000080240B0
:102EE000000C024058640240EC0100204C0200201B
:102EF0002DE9F04387B004460F4691461D46C8466B
:102F00003FB9A06B40F00060A063012007B0BDE8AE
:102F1000F08394F8340001287ED10020A06308EBF0
:102F20000501E06D814205D9A06B40F00070A063FF
:102F30000120EBE7032084F8340000202168C862F8
:102F40002068C06B40F22A3108432168C8633848C2
:102F5000216CC8633748216CC8640020216C086567
:102F60000021206C8160206C0068006820F0C000A7
:102F7000216C89680843216C096808606A0293081B
:102F8000226802F180013A46206CFEF70DFD80B107
:102F90002068C06B20F495702168C86326482168BA
:102FA0008863A06B40F08040A063012084F8340067
:102FB000ACE7012021490860606C012801D04FEA8C
:102FC00048284FF0FF300190680202909020039053
:102FD00002200490002005900120069001A920689D
:102FE00001F0C8F9012D07D98220206341462068ED
:102FF00001F0D2FA064606E08120206341462068AF
:1030000001F0E6FA064676B10B4821688863A06BAA
:103010003043A063012000E007E084F83400002082
:103020002063012072E7002070E702206EE70000B5
:103030008D4C0008194C0008FF0540008C85254286
:1030400010B50446FDF7C0FE10BD10B50446FDF7EF
:10305000DDFE10BD2DE9F04387B004468846914659
:103060001D464F46B8F1000F07D1A06B40F000603D
:10307000A063012007B0BDE8F08394F83400012874
:1030800074D10020A0637919E06D814205D9A06B4D
:1030900040F00070A0630120ECE7032084F83400C6
:1030A00000202168C8622068C06B40F21A210843E2
:1030B0002168C8633848E16BC8633848E16BC8646D
:1030C0000020E16B0865606C012800D07F02012DB3
:1030D00007D9A02020633946206801F057FB064637
:1030E00006E0902020633946206801F06BFB06461D
:1030F00066B12B4821688863A06B3043A063012030
:1031000084F83400002020630120B3E70120254922
:1031100008604021E06B8160E06B0068006820F08F
:10312000C000E16B89680843E16B096808606902C7
:103130008B08216801F180024146E06BFEF734FC08
:10314000A8B12068C06B40F21A2188432168C86387
:10315000134821688863A06B40F08040A063012081
:1031600084F8340000202063012083E711E04FF051
:10317000FF3001906802029090200390002004909C
:1031800005900120069001A9206801F0F3F80020C5
:1031900070E702206EE700001D4D0008194C000882
:1031A000FF0540008C8525427047704730B50246C8
:1031B0000B4600BF92F83C00012801D1022030BD2F
:1031C000012082F83C0000BF022082F83D00106818
:1031D00044681068816824F070041868044310681B
:1031E0004460184D1068A8421BD01068B0F1804FA1
:1031F00017D0154D1068A84213D0144D1068A8427E
:103200000FD0134D1068A8420BD0124D1068A84281
:1032100007D0114D1068A84203D0104D1068A84285
:1032200005D121F0800158680143106881600120B8
:1032300082F83D0000BF002082F83C0000BF00BFC4
:10324000BDE700000000014000040040000800400D
:10325000000C004000040140004001400018004004
:1032600010B504460CB9012010BD94F83D0028B9F2
:10327000002084F83C00204600F026F8022084F864
:103280003D00211D206802F09DF9012084F84600D0
:1032900000BF84F83E0001213F2001554020015528
:1032A0004120015500BF00BF012084F842004320A7
:1032B0000155442001554520015500BF012084F8E7
:1032C0003D000020D0E7000038B504461D492068C5
:1032D000884218D100BF002000901B48006840F0D1
:1032E0000800194908600846006800F008000090CE
:1032F00000BF00BF002208213220FEF739FE322035
:10330000FEF726FE1DE011492068884219D100BF52
:10331000002000900C48001D006840F480300A49ED
:10332000091D08600846006800F48030009000BF66
:1033300000BF002205211820FEF71AFE1820FEF714
:1033400007FE38BD000C00404038024000400140FC
:10335000014691F83D00012801D00120704702206C
:1033600081F83D000868C06840F001000B68D86033
:103370001A4B086898421BD00868B0F1804F17D0EC
:10338000174B0868984213D0164B086898420FD024
:10339000154B086898420BD0144B0868984207D028
:1033A000134B0868984203D0124B086898420CD11E
:1033B0000868806800F00702062A0CD008680068D8
:1033C00040F001000B68186005E00868006840F0F4
:1033D00001000B6818600020C0E7000000000140F9
:1033E0000004004000080040000C004000040140C0
:1033F00000400140001800402DE9F04104460D4610
:10340000002700BF94F83C00012802D10220BDE84B
:10341000F081012084F83C0000BF022084F83D00C8
:103420002068866826F0770626F47F462068866046
:103430002868502833D00CDC202850D004DC002829
:103440004BD0102851D149E0302849D040284CD1E8
:1034500039E060282DD0702807D0B0F5805F03D008
:10346000B0F5005F41D10DE041E0D5E902136A6893
:10347000206802F013F92068866846F07706206815
:10348000866034E0D5E902136A68206802F006F924
:103490002068806840F480402168886027E0EA68FE
:1034A0006968206802F00EF95021206802F001F9E5
:1034B0001DE0EA686968206802F017F96021206859
:1034C00002F0F7F813E0EA686968206802F0FAF899
:1034D0004021206802F0EDF809E000BF00BF00BF06
:1034E0002968206802F0E5F801E0012700BF00BF6D
:1034F000012084F83D0000BF002084F83C0000BF9C
:10350000384684E7704710B5044620680069C0F368
:103510004000D8B12068C068C0F34000B0B16FF07F
:10352000020021680861012020772068806900F08E
:10353000030018B12046FFF7E5FF05E0204600F044
:10354000ADF8204600F0ABF8002020772068006935
:10355000C0F38000D8B12068C068C0F38000B0B16B
:103560006FF00400216808610220207720688069DC
:1035700000F4407018B12046FFF7C4FF05E0204674
:1035800000F08CF8204600F08AF8002020772068B0
:103590000069C0F3C000D8B12068C068C0F3C000A3
:1035A000B0B16FF00800216808610420207720681E
:1035B000C06900F0030018B12046FFF7A3FF05E043
:1035C000204600F06BF8204600F069F800202077D4
:1035D00020680069C0F30010D8B12068C068C0F34B
:1035E0000010B0B16FF0100021680861082020774A
:1035F0002068C06900F4407018B12046FFF782FFD0
:1036000005E0204600F04AF8204600F048F8002087
:1036100020772068006900F0010058B12068C06878
:1036200000F0010030B16FF0010021680861204610
:1036300000F036F820680069C0F3C01058B1206867
:10364000C068C0F3C01030B16FF08000216808611D
:103650002046FFF7A9FD20680069C0F3801058B12B
:103660002068C068C0F3801030B16FF0400021685E
:103670000861204600F044F820680069C0F340105B
:1036800058B12068C068C0F3401030B16FF020001E
:10369000216808612046FFF788FD10BD704770471C
:1036A00010B5044611492068884201D1FEF7B6FBE7
:1036B0000F492068884204D1FDF7F8FDFDF762FE4E
:1036C00012E00C49206888420ED100F031FEFDF76F
:1036D000EDFD09480078012801D102F0CDFC06F08B
:1036E000BFFA03200549087010BD0000000001402A
:1036F000000C0040004001403C0000205801002028
:1037000070477047704700002DE9F84F0446206865
:1037100005682068C668206847694FF00009CA46F6
:1037200005F00F09B9F1000F0AD105F0200038B1FA
:1037300006F0200020B1204602F04CF8BDE8F88FDA
:10374000B9F1000F7CD007F0010018B906F49070B1
:10375000002875D005F0010030B106F4807018B172
:10376000206C40F00100206405F0040030B107F047
:10377000010018B1206C40F00200206405F0020046
:1037800030B107F0010018B1206C40F00400206453
:1037900005F0080048B106F0200010B907F001005C
:1037A00018B1206C40F008002064206C002846D03E
:1037B00005F0200028B106F0200010B1204602F0EC
:1037C00009F820684069C0F3801A206C00F00800F6
:1037D00010B9BAF1000F2DD0204601F0B5FF2068D6
:1037E000406900F04000402820D100BF00BF2168A0
:1037F000143151E8001F21F040002168143141E8E4
:103800000002002AF3D100BFA06B50B17548A16B34
:103810000865A06BFDF71BFF88B1A06B016D8847A1
:103820000DE02046FFF76EFF09E009E02046FFF7B4
:1038300069FF04E02046FFF765FF002020647DE774
:10384000206B012876D105F01000002872D006F018
:1038500010000028FAD000BF002000902068006807
:10386000009020684068009000BF00BF2068406959
:1038700000F0400040285ED1A06B006840681FFA4D
:1038800080F8B8F1000F54D0A08D404551DDA4F868
:103890002E80A06BC069B0F5807F43D000BF00BF11
:1038A00021680C3151E8001F21F4807021680C312F
:1038B00041E80002002AF3D100BF00BF00BF216829
:1038C000143151E8001F21F001002168143141E852
:1038D0000002002AF3D100BF00BF00BF21681431ED
:1038E00051E8001F21F040002168143141E8000236
:1038F000002AF3D100BF202084F83E00002020637E
:1039000000BF00BF21680C3151E8001F21F01000FA
:1039100021680C3141E80002002AF3D100BFA06BFE
:10392000FDF73FFEA08DE28D801A81B22046FFF7A1
:10393000E8FE03E740E0A08DE18D401A1FFA80F811
:10394000E08DC0B3B8F1000F35D000BF00BF2168D3
:103950000C3151E8001F21F4907021680C3141E8CE
:103960000002002AF3D100BF00BF00BF216814315C
:1039700051E8001F21F001002168143141E80002E4
:10398000002AF3D100BF202084F83E0000202063ED
:1039900000BF00BF21680C3151E8001F21F010006A
:1039A00021680C3141E80002002AF3D100BF4146F2
:1039B0002046FFF7A6FEC1E605F0800030B106F014
:1039C000800018B1204602F0BAF8B7E605F04000D2
:1039D00030B106F0400018B1204601F0EBFEADE634
:1039E00000BFABE63557000810B504460CB90120FE
:1039F00010BDA06900B100E000BF94F83D0028B9F7
:103A0000002084F83C00204600F028F8242084F8A8
:103A10003D002068C06820F400502168C86020463E
:103A200001F054FF2068006920F49040216808618B
:103A30002068406920F02A00216848612068C06839
:103A400040F400502168C86000202064202084F8E1
:103A50003D0084F83E000020CAE7000010B586B0A3
:103A60000446142101A8FCF791FF3E4920688842D2
:103A700039D100BF002000903B48006840F01000A2
:103A8000394908600846006800F01000009000BF47
:103A900000BF00BF0020009033481438006840F099
:103AA00001003149143908600846006800F001003F
:103AB000009000BF00BF4FF4C06001900220029050
:103AC00000200390032004900720059001A92748B7
:103AD000FEF78EF8002208212520FEF749FA25205E
:103AE000FEF736FA3CE022492068884238D100BF10
:103AF000002000901C48006840F020001A4908602F
:103B00000846006800F02000009000BF00BF00BF22
:103B10000020009014481438006840F0400012491A
:103B2000143908600846006800F04000009000BFAB
:103B300000BF4FF4844001900220029000200390C7
:103B4000032004900820059001A90A48FEF750F8C8
:103B5000002206214720FEF70BFA4720FEF7F8F96E
:103B600006B010BD00100140443802400000024081
:103B7000001401400018024070B504460D46164678
:103B800094F83E00202816D105B10EB9012070BD71
:103B900000BF94F83C00012801D10220F7E7012082
:103BA00084F83C0000BF00202063324629462046AE
:103BB00001F0A2FFEBE70220E9E7000010B50446A0
:103BC00017492068884211D11648017816480268C2
:103BD0000068401C144B18601448815400F08CFBA2
:103BE000012210492046FFF7C7FF17E0104920685F
:103BF000884213D10F4801780F4802680068401CC2
:103C00000D4B18600D48815400F076FB01220949E4
:103C10002046FFF7B1FF01200949087010BD0000E0
:103C20000014014024000020280000203C03002054
:103C3000001001403400002038000020FC0B002060
:103C40003C0000202DE9F84F04460E4617469946E1
:103C50004FF0000A94F83D0020285AD106B117B958
:103C60000120BDE8F88F00BF94F83C00012801D185
:103C70000220F6E7012084F83C0000BF0020206409
:103C8000212084F83D00FEF7C3F88246A784E7842C
:103C9000A068B0F5805F04D1206910B90025B04656
:103CA00002E035464FF0000800BF002084F83C00D9
:103CB00000BF1BE05346002280212046CDF8009033
:103CC00001F06DFF08B10320CBE745B9B8F800005B
:103CD000C0F308002168486008F1020803E0287872
:103CE000216848606D1CE08C401EE084E08C002858
:103CF000E0D15346002240212046CDF8009001F04B
:103D00004EFF08B10320ACE7202084F83D000020DE
:103D1000A7E70220A5E710B5034693F83D00202849
:103D200023D101B10AB9012010BD00BF93F83C00B6
:103D3000012801D10220F7E7012083F83C0000BFF1
:103D400019629A84DA8400201864212083F83D00E7
:103D500000BF002083F83C0000BF1868C06840F036
:103D600080001C68E0600020DEE70220DCE7000045
:103D700010B504461249206888421FD111480068D6
:103D8000401C10490860084600680F4909688842CD
:103D90000AD300200B4908600B48006870B1FDF79A
:103DA00085FAFDF767FA09E0084806490968405CAA
:103DB0000749087001220748FFF7ADFF10BD00005A
:103DC0000014014040000020300000209C0700202B
:103DD0002C000020800C002002E0002005F062FF93
:103DE000FBE7000070B540F6FF75154E6C1C2146D0
:103DF000304605F0A3FF00281CD1A2B22946304668
:103E000005F0F0FF28B10FA0FCF77AFB6FF001007E
:103E100070BDA2B22946304605F076FF28B110A049
:103E2000FCF76EFB6FF00200F2E714A0FCF768FBF2
:103E30000020EDE718A0FCF763FB4FF0FF30E7E749
:103E40000000020853544D333220466C61736820E1
:103E50005772697465204661696C0D0A00000000A4
:103E600053544D333220466C61736820436F6D703C
:103E7000617265204661696C0D0A000053544D3330
:103E80003220466C61736820436F6D7061726520EB
:103E9000506173730D0A000053544D333220466C49
:103EA000617368204572617365204661696C0D0A13
:103EB0000000000008B500BF002000900E48006818
:103EC00040F480000C4908600846006800F4800057
:103ED000009000BF00BF002206213B20FEF748F8FB
:103EE0003B20FEF735F8002206214520FEF740F87A
:103EF0004520FEF72DF808BD3038024010B50349C3
:103F00000348FDF72CF80349087010BDA5000020F8
:103F10009CC40008A400002010B51D4A01210846D9
:103F200004F086FC1B4908601B4A0121084604F086
:103F30007FFC1A4908601A4A4FF49C61012004F082
:103F40009BFB18490860184A4FF49C61012004F05B
:103F500093FB16490860164A0021164804F0FCFC41
:103F600015490860154A0021154804F0F5FC15496B
:103F70000860154A0021154804F0EEFC1449086059
:103F8000144A0021144804F0E7FC1449086010BDED
:103F90005CBE00081C0000206CBE00082000002051
:103FA0002CBE00081400002044BE000818000020A9
:103FB0009CBD0008F753000804000020C0BD0008A5
:103FC0003954000808000020E4BD000865540008CA
:103FD0000C00002008BE000801540008100000205A
:103FE00000B587B0142102A8FCF7D0FC00BF002068
:103FF00001904848006840F01000464908600846B3
:10400000006800F01000019000BF00BF00BF00205A
:1040100001900846006840F080000860084600688B
:1040200000F08000019000BF00BF00BF00200190A1
:104030000846006840F0040008600846006800F088
:104040000400019000BF00BF00BF0020019008469F
:10405000006840F0010008600846006800F00100B8
:10406000019000BF00BF00BF00200190084600681B
:1040700040F0080008600846006800F00800019061
:1040800000BF00BF00BF002001900846006840F05C
:10409000400008600846006800F04000019000BF42
:1040A00000BF00BF002001900846006840F00200F9
:1040B00008600846006800F00200019000BF00BFE1
:1040C000012211461448FDF79DFE012208211348E4
:1040D000FDF798FE0420029000200390049002A9AE
:1040E0000F48FDF785FD0120029003900490002009
:1040F000059002A90848FDF77BFD082002900120E9
:10410000039004900020059002A90448FDF770FD7B
:1041100007B000BD3038024000080240000C0240E9
:10412000001002400648074908600020486000214E
:1041300004488160C160016141611821816170475B
:10414000002C01406801002000B587B000200390DA
:104150000490059006900190029021482149086042
:1041600042F2CF00486000211E48816047F22F5183
:10417000C1600021016180218161FFF771F808B100
:10418000FCF7EAFE4FF48050039003A91548FFF7AF
:1041900033F908B1FCF7E0FE00200190029001A97C
:1041A0001048FFF703F808B1FCF7D6FE00BF0D4832
:1041B0000068006A41F21111084068B909480068B6
:1041C000006A8910084038B906480068006820F085
:1041D000010004490968086000BF07B000BD000085
:1041E000000C0040AC0200201FB5002000900190A0
:1041F000029003901A481B49086042F2CF004860C1
:104200000021184881606321C16000210161816142
:10421000FFF726F808B1FCF79FFE4FF4805000909E
:1042200069461048FFF7E8F808B1FCF795FE00BFB3
:104230000C480068006A41F21111084068B9094849
:104240000068006A8910084038B9064800680068AC
:1042500020F0010003490968086000BF1FBD00008D
:1042600000400140F402002010B50D480D490860DF
:104270004FF4E130486000210A488160C16001616B
:104280000C21416100218161C161FFF7ADFB08B1E3
:10429000FCF762FE012204490248FFF76DFC10BDE5
:1042A000001001403C0C00203400002010B50D48E7
:1042B0000D4908604FF4E130486000210A488160F0
:1042C000C16001610C21416100218161C161FFF781
:1042D0008BFB08B1FCF740FE012204490248FFF7BE
:1042E0004BFC10BD00140140800C00202400002075
:1042F00000BFFEE700BFFEE700200C4909684862E6
:10430000801E0A490968086108480068C06840F0D2
:10431000010006490968C86004480068006840F068
:10432000010002490968086070470000F40200209B
:1043300000BF0F480068006A41F21111084068B9D7
:104340000B480068006A8910084038B908480068BE
:10435000006820F0010006490968086000BF0448B1
:104360000068C06820F0010001490968C860704712
:10437000F402002010B50246002308685062486825
:104380009062D1E9020420430C6920434C69204328
:104390000343D06A20F0F7001843D062002010BD1C
:1043A00001460869C0B270470146086800F0030082
:1043B0007047024602F11400431818687047000065
:1043C00010B50248FEF74CFB10BD0000680100204C
:1043D0000FB410B504460021DDE903021043059A2D
:1043E0001043069A1043079A1043089A104301435A
:1043F000606847F6FF62904308436060002010BC8D
:104400005DF814FB10B50446032020600220FDF780
:1044100015FB002010BD0146D1F88000704710B593
:104420000246002308689060D1E901042043CC686B
:1044300020430C6920430343D0686FF30B001843FB
:10444000D060002010BD02460868C2F8800000203D
:10445000704770B586B005460C460194372002902F
:1044600040200390002004904FF48060059001A943
:104470002846FFF7D4FF41F288323721284600F062
:10448000DDF90646304606B070BD000070B586B056
:1044900005460C460B4820430190292002904020FD
:1044A0000390002004904FF48060059001A92846F5
:1044B000FFF7B5FF284600F0C9FA0646304606B0B9
:1044C00070BD00000000108070B586B005460C4637
:1044D00001941020029040200390002004904FF49B
:1044E0008060059001A92846FFF799FF41F28832C4
:1044F0001021284600F0A2F90646304606B070BDED
:1045000070B586B005460C46019406200290402006
:104510000390002004904FF48060059001A9284684
:10452000FFF77DFF41F288320621284600F086F928
:104530000646304606B070BD30B585B00446002052
:1045400000900190029003904FF4806004906946BF
:104550002046FFF764FF204600F050F90546284644
:1045600005B030BD30B585B004464FF4D57000902D
:104570000820019040200290002003904FF48060BA
:10458000049069462046FFF74AFF204600F0E6FA0D
:104590000546284605B030BD70B586B005460C46C8
:1045A00001941220029040200390002004904FF4C8
:1045B0008060059001A92846FFF731FF41F288325B
:1045C0001221284600F03AF90646304606B070BD82
:1045D00070B586B005460C4601941120029040202B
:1045E0000390002004904FF48060059001A92846B4
:1045F000FFF715FF41F288321121284600F01EF91D
:104600000646304606B070BDF0B585B00646144685
:104610001D46009407200190402002900020039046
:104620004FF48060049069463046FFF7F8FE41F28F
:1046300088320721304600F001F90746384605B0B8
:10464000F0BD30B585B004460020009002200190F6
:10465000C0200290002003904FF4806004906946CF
:104660002046FFF7DCFE204600F0BEF9054628464E
:1046700005B030BD70B586B005460C4601940920E2
:104680000290C0200390002004904FF480600590B9
:1046900001A92846FFF7C3FE284600F0A5F9064603
:1046A000304606B070BD30B585B00446002000909D
:1046B0003320019040200290002003904FF480604E
:1046C000049069462046FFF7AAFE41F28832332162
:1046D000204600F0B3F80546284605B030BD70B559
:1046E00086B005460C4601940D20029040200390B0
:1046F000002004904FF48060059001A92846FFF740
:104700008EFE41F288320D21284600F097F80646C9
:10471000304606B070BD70B586B005460C46002028
:1047200001900320029040200390002004904FF459
:104730008060059001A92846FFF771FE22460321FB
:10474000284600F0AFF90646304606B070BD0000BE
:1047500030B585B00446002000900C200190402028
:104760000290002003904FF4806004906946204638
:10477000FFF755FE044A0C21204600F05FF805467D
:10478000284605B030BD000000E1F50570B586B0E3
:1047900005460C4601941920029040200390002009
:1047A00004904FF48060059001A92846FFF737FE7A
:1047B00041F288321921284600F040F8064630467A
:1047C00006B070BD70B586B005460C460194182041
:1047D000029040200390002004904FF480600590E8
:1047E00001A92846FFF71BFE41F28832182128460E
:1047F00000F024F80646304606B070BD01460E486B
:104800000068C0084FF47A73B0FBF3F041F28833CC
:1048100000FB03F200BF101EA2F1010202D14FF013
:1048200000407047486B00F080000028F3D0C5209E
:1048300088630020F5E70000500000202DE9F043D8
:1048400005460F46904666480068C0084FF47A71E6
:10485000B0FBF1F000FB08F900BFB9F10000A9F1CD
:10486000010903D14FF00040BDE8F0836E6B06F004
:1048700045000028F1D006F400600028EDD1686BF7
:1048800000F0040010B10420A863EDE7686B00F0AD
:10489000010010B10120A863E6E7C520A8632846FF
:1048A000FFF77EFDB84201D00120DDE70021284658
:1048B000FFF77FFD04464B48204008B90020D3E7AE
:1048C00004F00040B0F1004F02D14FF00070CBE790
:1048D00004F08040B0F1804F01D14020C4E704F0E3
:1048E0000050B0F1005F01D18020BDE704F080509E
:1048F000B0F1805F02D14FF48070B5E704F0006042
:10490000B0F1006F02D14FF40070ADE704F08060A9
:10491000B0F1806F02D14FF48060A5E704F08070A1
:10492000B0F1807F02D14FF400609DE704F40000F5
:10493000B0F5000F02D14FF4805095E704F48000E9
:10494000B0F5800F02D14FF400508DE704F4001051
:10495000B0F5001F02D14FF4804085E704F48010C9
:10496000B0F5801F02D14FF400407DE704F48020B1
:10497000B0F5802F02D14FF4003075E704F4003019
:10498000B0F5003F02D14FF480206DE704F4803091
:10499000B0F5803F02D14FF4002065E704F40040F9
:1049A000B0F5004F02D14FF480105DE704F4804071
:1049B000B0F5804F02D14FF4001055E704F40050D9
:1049C000B0F5005F02D14FF480004DE704F008001D
:1049D000082801D1000547E74FF4803044E7000084
:1049E0005000002008E0FFFD10B5014616480068A1
:1049F000C0084FF47A74B0FBF4F041F2883400FB45
:104A000004F300BF181EA3F1010302D14FF00040D0
:104A100010BD4A6B02F045000028F3D002F400609C
:104A20000028EFD1486B00F0040010B10420886327
:104A3000EEE7486B00F0010010B101208863E7E762
:104A4000C52088630020E3E75000002010B5014630
:104A500013480068C0084FF47A74B0FBF4F041F2D8
:104A6000883400FB04F300BF181EA3F1010302D138
:104A70004FF0004010BD4A6B02F045000028F3D013
:104A800002F400600028EFD1486B00F0040010B180
:104A900004208863EEE7C52088630020EAE7000071
:104AA000500000202DE9F04304460F4690462A4866
:104AB0000068C0084FF47A71B0FBF1F041F2883120
:104AC00000FB01F900BFB9F10000A9F1010903D110
:104AD0004FF00040BDE8F083666B06F0450000280B
:104AE000F1D006F400600028EDD1606B00F0040006
:104AF00010B10420A063EDE7606B00F0010010B17D
:104B00000120A063E6E72046FFF74AFCB84201D047
:104B10000120DFE7C520A06300212046FFF749FC04
:104B2000054605F4604020B9280CA8F800000020D4
:104B3000D0E705F48040B0F5804F02D14FF400502B
:104B4000C8E705F40040B0F5004F02D14FF48050A3
:104B5000C0E74FF48030BDE75000002010B501469B
:104B600018480068C0084FF47A74B0FBF4F041F2C2
:104B7000883400FB04F300BF181EA3F1010302D127
:104B80004FF0004010BD4A6B02F045000028F3D002
:104B900002F400600028EFD1486B00F0040010B16F
:104BA00004208863EEE7486B00F0010010B101209B
:104BB0008863E7E7486B00F0400008B14020886355
:104BC0000020DFE75000002010B50446012007490F
:104BD0000870FCF7B5F828B90448007820F0010007
:104BE000024908700148007810BD00009C000020B8
:104BF00070B5044603F0ACFC054604E0FCF7A0F8F1
:104C000008B9002070BD03F0A3FC401BA042F5D3FF
:104C10004FF0FF30F6E700002DE9F0410646B46B97
:104C20003046FCF728FD02282CD0206C476DE06B45
:104C3000D0F85480012F02D0B8F1010F1FD11248D3
:104C4000216888632068C06B20F49D702168C86368
:104C5000A06B40F08040A0632046FDF7EEFE0546C5
:104C6000062D01D0052D05D12068FFF771FDA16B40
:104C70000843A063012084F834000020206320460C
:104C8000FDF7E2FDBDE8F081FF05400070B5064686
:104C9000B46B206B82280AD12068FFF759FD0546C6
:104CA0002DB1A06B2843A0632046FDF7CDFD206801
:104CB000C06A20F008002168C86240F23A502168BA
:104CC0008863012084F83400002020632046FEF72A
:104CD000B7F970BD70B50546AC6B40F23A5021682B
:104CE00088632046FDF7A9FE0646012084F83400BB
:104CF00000202063062E01D0052E05D12068FFF785
:104D000027FDA16B0843A063A06B18B92046FDF7EF
:104D100031FD02E02046FDF797FD70BD0146886B2E
:104D20000268D26B42F480720368DA63704770B530
:104D30000546AC6B40F23A50216888632046FDF787
:104D40007CFE0646012084F8340000202063062EF5
:104D500001D0052E05D12068FFF7FAFCA16B0843AE
:104D6000A063A06B18B92046FDF704FD02E02046C1
:104D7000FDF76AFD70BD2DE9F04389B004460F468A
:104D8000FDF746F881464FF00008002001900290A0
:104D90003E4608212068FFF797FB05461DB12846CF
:104DA00009B0BDE8F0835022125B11042068FFF7C0
:104DB00050FB05460DB12846F2E74FF0FF30039057
:104DC00008200490302005900220069000200790D3
:104DD0000120089003A92068FFF7CCFA2068FFF7AC
:104DE00062FC05460DB12846DAE71CE02068406BFE
:104DF00000F4001040B12068FFF70DFB01A941F855
:104E0000280008F1010805E02068406B00F400501C
:104E100000B90EE0FCF7FCFFA0EB0900401C10B944
:104E20004FF00040BCE72068406B00F02A000028EB
:104E3000DCD000BF2068406B00F0080018B10820EB
:104E400021688863ACE72068406B00F0020018B16D
:104E5000022021688863A3E72068406B00F02000EF
:104E600018B12020216888639AE740F23A502168FF
:104E7000886302980006029901F47F4140EA01200C
:104E8000029901F47F0140EA1120029940EA116081
:104E90003060361D01980006019901F47F4140EA17
:104EA0000120019901F47F0140EA1120019940EAB3
:104EB00011603060002073E730B58FB004460120E8
:104EC00003902068FFF770FA18B94FF080600FB0B8
:104ED00030BD606C03281BD02068FFF7B2FB05468D
:104EE0000DB12846F3E700212068FFF762FA6067FA
:104EF00004212068FFF75DFAA06708212068FFF70A
:104F000058FAE0670C212068FFF753FA8021085116
:104F1000606C032807D003A92068FFF7FCFB054657
:104F20000DB12846D3E7606C032820D0BDF80C10E3
:104F300021655022125B11042068FFF79BFB054698
:104F40000DB12846C3E700212068FFF732FA6066FA
:104F500004212068FFF72DFAA06608212068FFF7DA
:104F600028FAE0660C212068FFF723FA2067042165
:104F70002068FFF71EFA010DE16404A92046FDF741
:104F800065FC10B14FF08050A1E75020005B010498
:104F90000A4600232068FFF737FB05460DB1284677
:104FA00095E7D4E90412A069CDE90012029094E8D3
:104FB0000F00FFF70DFA002089E70000F8B504465E
:104FC00000200090002600272068FFF7B5FA05466C
:104FD0000DB12846F8BD2068FFF7C4FA054645B173
:104FE0000021A1642068FFF7A7FA05461DB12846F5
:104FF000F0E70121A164A06C012808D100212068FC
:10500000FFF727FA054615B14FF08050E2E71DE0A3
:1050100000212068FFF71DFA05460DB12846D9E7A3
:1050200018492068FFF732FA054615B14FF0805055
:10503000D0E700212068FFF7BCF90646012080EA8E
:10504000D67080F001070098401C00904FF6FF7169
:105050000098884201D2002FDAD04FF6FF710098F5
:10506000884202D34FF08070B4E706F08040B0F180
:10507000804F02D10120606401E0002060640020C4
:10508000A8E70000000010C12DE9F0410546AC6A18
:10509000EF6AE7B14FF0000814E02868FFF7BBF9AA
:1050A00006462670641C7F1E300A2070641C7F1E1A
:1050B000300C2070641C7F1E300E2070641C7F1E1C
:1050C00008F10108B8F1080FE7D3AC62EF62BDE860
:1050D000F08170B504460D4615B94FF0006070BD03
:1050E0005022125B11042068FFF7F9FA06460EB150
:1050F0003046F4E700212068FFF75BF928600020C4
:10510000EDE77CB504460020009001900021206866
:10511000FFF74FF900F00070B0F1007F02D14FF4BB
:1051200000607CBD69462046FFF725FE05460DB1AF
:105130002846F6E7019800F4803098B15022125BBF
:1051400011042068FFF785F905460DB12846E8E708
:1051500000212068FFF7D4F905460DB12846E0E7A5
:105160000020DEE74FF08060DBE77CB504460020DE
:105170000090019000212068FFF71BF900F00070FB
:10518000B0F1007F02D14FF400607CBD694620463B
:10519000FFF7F1FD05460DB12846F6E7019800F44A
:1051A000802098B15022125B11042068FFF751F95A
:1051B00005460DB12846E8E702212068FFF7A0F96F
:1051C00005460DB12846E0E70020DEE74FF080609D
:1051D000DBE7F8B505462C6A6E6A1EB300271DE0B2
:1051E00020780090641C761E2078009941EA002007
:1051F0000090641C761E2078009941EA00400090DF
:10520000641C761E2078009941EA00600090641CBE
:10521000761E69462868FFF716F97F1C082FDFD332
:105220002C626E62F8BD000010B5044601201449DE
:10523000087003F073F902281ED1FBF78DFD20B929
:105240002046FFF7C1FC0E4908700D480078012880
:1052500012D00C48006830B9002202210A2003F065
:105260000BFA084908600748006828B90448007824
:1052700040F00100024908700148007810BD0000AC
:105280009C000020A0000020F0B589B007460D4624
:10529000144601261648007800F0010010B10320E2
:1052A00009B0F0BD35B1012D06D0022D0BD0032D74
:1052B00018D10FE0002617E001A8FBF737FD07988B
:1052C0002060002610E001A8FBF730FD0898208040
:1052D000002609E001A8FBF729FD0898400A206094
:1052E000002601E0042600BF00BF3046D8E70000DA
:1052F0009C0000202DE9F84F83460F4690469946C2
:105300004FF0010A47F23050FFF772FC002802DA32
:105310005046BDE8F88F4A4641463846FBF740FD07
:105320000446FCB947F23053002269460E48006833
:1053300003F062F90646AEB9BDF80000012811D1AC
:1053400003F006F9054605E0FBF7FAFC10B94FF04B
:10535000000A06E003F0FCF8401B47F23051884297
:10536000F2D300BF5046D4E7A000002010B5044699
:105370002046FFF729FC10BD2DE9F84F82460E4666
:10538000174698464FF0010947F23050FFF730FCBE
:10539000002802DA4846BDE8F88F424639463046D2
:1053A000FBF720FDF8B947F23053002269460F4859
:1053B000006803F021F90546ADB9BDF800000228E8
:1053C00011D103F0C5F8044605E0FBF7B9FC10B9AC
:1053D0004FF0000906E003F0BBF8001B47F2305124
:1053E0008842F2D300BF4846D5E70000A000002065
:1053F00001460868704700BF012003F07FF8FBE713
:1054000002F096FE4FF0FF310A48006803F0C4F93D
:1054100004460CB900F086F900BF4FF0FF31054893
:10542000006803F0B9F90446002CF6D1FBF7CCFF75
:10543000F3E700001C0000201CB501A802F084FE68
:1054400000BF4FF0FF336A4605480199006803F03A
:10545000D3F80446002CF4D10198FBF7EFFFF0E7F6
:10546000180000200EB5002402F002FE01A902A8D7
:1054700002F070FE00BF4FF0FF336A460C480199FE
:10548000006803F0B9F80546002DF4D100F042F9A8
:1054900000F0E4FF04460CB1FE2CECD10A230122FB
:1054A00004480299006803F035F90546E3E7000077
:1054B000140000201800002010B54FF0E020006913
:1054C00006F0B4F9012801D005F0BEFB10BD0000C4
:1054D00000B593B0302107A8FBF758FA142102A8B1
:1054E000FBF754FA00BF002001902348006840F009
:1054F0008050214908600846006800F08050019003
:1055000000BF00BF00BF002001901C48006840F4AD
:1055100080401A4908600846006800F48040019005
:1055200000BF00BF012007900004089002200D90EA
:1055300041050E9104210F91A82110910221119192
:105540000721129107A8FCF7C7FE08B1FBF704FD7D
:105550000F20029002200390002004904FF4A050EE
:1055600005900690052102A8FCF754FD08B1FBF751
:10557000F3FC13B000BD0000403802400070004052
:105580000348006840F4700001490860704700005B
:1055900088ED00E010B50248FDF7B5FF10BD000032
:1055A000F402002010B50248FDF7ADFF10BD000069
:1055B000C40C002010B50248FDF7A5FF10BD000087
:1055C000AC02002010B50268294B98420ED0B0F111
:1055D000804F0BD0274B984208D0274B984205D0DC
:1055E000264B984202D0264B984203D122F07002FB
:1055F0004B681A431E4B984220D0B0F1804F1DD00B
:105600001C4B98421AD01C4B984217D01B4B984207
:1056100014D01B4B984211D01A4B98420ED01A4B03
:1056200098420BD0194B984208D0194B984205D09C
:10563000184B984202D0184B984203D122F4407282
:10564000CB681A4322F080034C6943EA04020260EB
:105650008B68C3620B688362054B984202D0084B8B
:10566000984201D10B6903630123436110BD00001F
:10567000000001400004004000080040000C004011
:105680000004014000400140004401400048014046
:1056900000180040001C00400020004030B50C46BF
:1056A000816821F47F4142EA032525432943816033
:1056B00030BD0A46816821F0700142F007031943AA
:1056C0008160704730B50B461446026A056A25F0C2
:1056D00001050562816921F0F00141EA041122F01F
:1056E0000A021A438161026230BD30B50B4614468E
:1056F000056A25F0100505628169026A21F470418E
:1057000041EA043122F0A00242EA031281610262FE
:1057100030BD000010B501210148FCF769FB10BD48
:105720000008024010B508210148FCF761FB10BDDC
:10573000000C024070B50546AC6B0020E085E084AB
:105740002046FDF7DFFF70BD00BF00BF02680C32CE
:1057500052E8002F22F4907102680C3242E80013E4
:10576000002BF3D100BF00BF00BF0268143252E823
:10577000002F22F001010268143242E80013002BCE
:10578000F3D100BF016B01290ED100BF00BF026839
:105790000C3252E8002F22F0100102680C3242E86D
:1057A0000013002BF3D100BF202180F83E10002110
:1057B0000163704710B504462068C06820F04000BF
:1057C0002168C860202084F83D002046FEF7D0FA0A
:1057D000002010BDF8B5044694F83E00222873D18D
:1057E000A068B0F5805F0CD1206950B90025A66A89
:1057F00020684068C0F308003080A06A801CA06266
:1058000015E0A56A0026A068B0F5805F03D0A06807
:1058100028B9206918B920684068287004E0206819
:10582000406800F07F002870A06A401CA062E08DF4
:10583000401E80B2E085002844D12068C06820F076
:1058400020002168C8602068C06820F4807021684A
:10585000C8602068406920F001002168486120206C
:1058600084F83E00206B012826D10020206300BF71
:1058700000BF21680C3151E8001F21F010002168A1
:105880000C3141E80002002AF3D100BF2068006813
:1058900000F0100010280AD100BF002000902068FE
:1058A0000068009020684068009000BF00BFA18D94
:1058B0002046FDF726FF02E02046FEF77FF9002094
:1058C000F8BD01E00020FBE70220F9E72DE9F84FE1
:1058D00004462068006920F44050E16808432168CC
:1058E00008612169A068084361690843E1690843C8
:1058F00000902068C06849F20C6188430099084311
:105900002168C8602068406920F44070A16908439C
:105910002168486176492068884203D0754920682B
:10592000884203D1FCF770FC814602E0FCF75CFC86
:105930008146E069B0F5004F6CD102206168A0FBA0
:10594000015003461920A9FB007001462A4638463B
:10595000FAF75EFD6421B0FBF1F04FEA001A022075
:105960006168A0FB01510B461920A9FB00712A4672
:105970003846FAF74DFD834602206168A0FB0150CE
:1059800003461920A9FB00712A463846FAF740FD64
:105990006421B0FBF1F000EBC00101EB0010ABEBB8
:1059A0008000322101EBC0006421B0FBF1F000F077
:1059B000F8000AEB400A02206168A0FB0150034690
:1059C0001920A9FB007001462A463846FAF720FD47
:1059D000834602206168A0FB015003461920A9FB01
:1059E00000712A463846FAF713FD6421B0FBF1F046
:1059F00000EBC00101EB0010ABEB8000322101EBAA
:105A0000C0006421B0FBF1F000F0070050442168B1
:105A100088606AE004206168A0FB015003461920F9
:105A2000A9FB007001462A463846FAF7F1FC824687
:105A300004206168A0FB015003461920A9FB0070F7
:105A400001462A463846FAF7E3FC6421B0FBF1F040
:105A500000EBC00101EB0010AAEB8000322101EB4A
:105A600000106421B0FBF1F000F0F00A042061683E
:105A7000A0FB017003461920A9FB00513A462846B5
:105A8000FAF7C6FC6421B0FBF1F00AEB001A04201F
:105A90006168A0FB01510B461920A9FB00712A4641
:105AA0003846FAF7B5FC834604206168A0FB015034
:105AB00003461920A9FB007001462A463846FAF72A
:105AC000A7FC6421B0FBF1F000EBC00101EB00107A
:105AD000ABEB8000322101EB00106421B0FBF1F050
